:020000040000fa
:080000000002040000000000f2
:020000040000fa
:100400008fbd20000e7f24000e0188000000000038
:1004100000012000200288000c0007004014240086
:100420000100200011000700000020000000e00093
:10043000020032000000020000000000404f0200f5
:10044000000000000040da000000fe004440a90067
:1004500000dd20000000e00003003200000020006a
:10046000a00188004440a800000006009101880017
:10047000800078000000eb0015003700e2804000ab
:1004800032a0b4009101ba00e280400032a0b40072
:100490009102ba00e280400032a0b4000002eb00fa
:1004a000472bde00f507b200602ce10004003a00a3
:1004b0000059eb008301e900fdff3e000400370016
:1004c0006128e100010032000082eb000400070017
:1004d0001101ba000200e000e8ff3a000000060047
:1004e0003159ba008301e9000c0032002159ba00e9
:1004f0008301e900080032000400e00003003a0034
:10050000e280400032a0b400f5ff370011d9ba00f4
:100510008301e900faff3a008100e800e180400031
:1005200032a0b400000006000040da000000fe0027
:10053000040024000602ab00feff3a000642ab00b6
:10054000fcff3a000662ab00faff3a000622ab005d
:10055000f8ff3a000682ab00f6ff3a004610800032
:1005600086026200e08f5200f2ff3a0000000600af
:1005700006a2a8000682a80000000600300880003d
:1005800000000600001020002202b6000000e90072
:100590004f00de00000006000411800066026200c9
:1005a000e60f520001003200f00fb2002011880067
:1005b0000000060003f0a200889fbe008a9fbe00d4
:1005c0008c1f7800ae010700b50133006450e100d4
:1005d0004f0032006420e1005200320003826c00c0
:1005e00007003b000905d0000306d000820f54002d
:1005f0000c065d000200390002003200890178001b
:10060000030678008582550004003d000003fd00cc
:100610008103fd008502ea008b854200840f720091
:1006200002003b0060001000e08018006011b8007c
:100630000005eb007a28e1000a0039000600780086
:10064000c75ddd00f707b200878075002d00370019
:10065000828171000a017800610560008180d1000b
:100660000080d3008502e900f9ff3b00060440004a
:100670008784480002003b0060041400e0841c00f2
:100680000988a300070032008a817100828171000d
:10069000610164008904d1000884d3008b05e8005f
:1006a000170037000978a30013003a000b00e000a0
:1006b000130034008b05e9000804440089844c00d1
:1006c0000a4474000978a3000d003a000b00e00012
:1006d000070034008b05e9000804440089844c00bd
:1006e00001003a000b0020000978a300f7ff320058
:1006f0000001eb0002003700828171000a017800de
:10070000240107000cf0a70001f0a0006d013700e4
:100710006420e10002003a00838f6c006d01330019
:100720000801be000200be00660137000001eb00b8
:10073000e4013700889fbe008a9fbe008c1f7800ae
:100740004f0107001002200002003b00004c88000f
:10075000530137008a0062006408e10002003a0099
:10076000004c88005b0137006108e100fcff3200ab
:100770000800be00030478007000070001f0a1002b
:100780000900070008f0a600040037000001be00c1
:1007900091042400b0fd200086ff070009f0a700a7
:1007a00001f0a20047013700889fbe008a9fbe006b
:1007b0008c9fbe000004be001c0107000800be00a4
:1007c000890678006420e100080039000400320046
:1007d0000160a00012022000024c88005300370084
:1007e00091fc2300b0fd20004e0037000006eb0016
:1007f00009f0a10003f82300020020000800be0059
:100800009f0007000600340001f8230000002000cc
:100810000801be00490007000004be002c002000b3
:100820000800be0093e82300320a2300940007006a
:10083000120034000801be00d1fd2300703d2b00e2
:100840005dff07000005be00b3f32300f27a260027
:100850000800be002201070003f823000200200068
:1008600054ff07000801be0053ff07000a01be0045
:10087000320007000004be000c06e8000800be00bd
:1008800001f0a10002002000039823007c00070073
:100890000800be00160035000801be001001070068
:1008a0000005be0032cd2c0043fb230042ff0700b1
:1008b000809fbe001269280003d52b000a00be00ed
:1008c00007010700620f210013ef2b003aff07001a
:1008d0000a01be00020107004f01be001700070019
:1008e0000801be00fe0007000801be0032ff07003d
:1008f0000c00e0000b0032000c10a70001f0a20079
:10090000b2fd200093fc23006260e100040032008d
:1009100022a9200063f023000c10a70063f8230035
:1009200025ff07000df0a70001f0a2004f06be0052
:100930004f05be004f04be0000000600889fbe00a9
:100940008a9fbe008c1f7800cd000700d4003300c2
:1009500003866c006450e1002e0032006420e10048
:10096000330032006150e1002f0032006120e100cd
:100970003100320085855500eb07b00009002000ea
:1009800008042000050037000804440089844c0056
:100990000a0031000603430087834b000001530027
:1009a00081815b00f8ff33000203be000800a00055
:1009b0000804440089844c00f6ff3900c639dd0084
:1009c0008301730001003200130020008904d1006c
:1009d0000884d3000998a300050032000800a7008e
:1009e0000300a0008904d1000884d3008b05e8002f
:1009f0008904d1000884d3000001eb000281d200f9
:100a00006400070001f0a1000cf0a70001f0a000b5
:100a1000ac0037006420e100ae0032000801be00e7
:100a20000200be00f7ff37006120e100a90032009c
:100a30006000b800f3ff37000000200001f8270035
:100a4000f0ff3700839f68000100e00002003d00d6
:100a500060001000e08018000300e00002003d008c
:100a600060011100e0811900060107004f00e0005d
:100a700002003b0060001000e0801800000006004b
:100a80001400200076013700f4ff2f0074013700b6
:100a90000001be00650007000470a70003f0a1007c
:100aa0006509b100160032000d0035006828e1002c
:100ab00006003500f0ff2f00f1ff27000300e000e3
:100ac00013003b000100280000000500000040006a
:100ad000818048008502e900fcff3a0008003700e9
:100ae000f88f420002003c008000eb00000005008f
:100af0008100d1000080d3008502e800fcff3a00ad
:100b00000300e00002003b0060001000e0801800dd
:100b1000000006000001be00440007000470a700aa
:100b200003f0a10003f8a30013003a006509b10027
:100b300010003200090035006928e100020035008c
:100b400001002800000005000000400081804800ee
:100b50008502e900fcff3a0000000600f88f420021
:100b6000050035008100d1000080d3008502e80037
:100b7000fcff3a00000006008000eb0000000500ca
:100b80004f89de0082017800500137006011b80003
:100b90005e01370081002000618055000b003d00a0
:100ba0000b00200061fe2f000100e1001d00340059
:100bb00082817100610164008904d1000884d3003e
:100bc0000000e800faff3a007100200061006400b4
:100bd000030070000200600009003200610444005c
:100be000e0844c000988a500050032008b05e80070
:100bf0006808e10002003a008904d1000884d300ab
:100c0000f20f20000258e10005003d00c75ddd0045
:100c1000f907b2008980750008007800000006001e
:100c20000bf827008b00780000000500c70ade00e3
:100c3000f107b200f50fb20008003200e1cf420028
:100c4000020032000170a00024000500810f700036
:100c5000010032000408050044000500810f700007
:100c600002003a00140005008502e900000040007f
:100c700081c04800fcff3b000170a000240005007b
:100c80000004be00e9ff07000003be000405be002b
:100c90000200be00e5ff0700844f7500000006005b
:100ca0000200be006450e100050036006420e1004f
:100cb000020036000968a30001003a000800be00e7
:100cc0000160a0004f0678004f05be004f04be0033
:100cd00000000600f0ff2f00f1ff2700f9ff3700aa
:100ce000889fbe008a9fbe008c1f7800e4ff07002b
:100cf000ebff330003866c006450e10024003200f7
:100d00006420e100270032006150e100220032003f
:100d10006120e100210032008b854200eb07b10029
:100d20000134b800003ab8000804420089844a003f
:100d3000013ab8000030b8008880400009014a003c
:100d40000400330000004000818048000201490097
:100d50008b05e900c909dd00830170000100320044
:100d600013002000c814de004814dd004709de002f
:100d70001200b200c808de000884700085ff07007a
:100d800001f0a1000cf0a70001f0a000cdff37009a
:100d90006120e100cfff32000801be000200be006a
:100da000f7ff37006150e100fcff3a00c9ff370050
:100db000889fbe008a9fbe008c1f78000004be0082
:100dc0009aff07000478a30026003a006120e100a2
:100dd0002500320009f8a30025003a006420e10054
:100de00021003200f507b1000508a300020032001f
:100df00000004000818048006044b80003102000db
:100e000002002000000040008180480008054400e6
:100e100089854c000a0541008b8549000a05500070
:100e20008b855800030033000a00be0002047400e2
:100e3000838474008301d1000281d300830f710089
:100e4000f0ff3a008904d1000884d3006001490012
:100e500082017800c1adde00fb07b0004dff070046
:100e600098ff37000960a0000800be0095ff37001a
:100e700012022000024c8800f0ff2f00f1ff270033
:100e800090ff37006022b800060220000000d0006a
:100e90008180d2000482d2008582d2000000a000ae
:100ea0000202520083825a00030031000202420013
:100eb00083824a000000a1000603e900f3ff3a0024
:100ec00000000600889fbe008a9fbe008c9fbe0067
:100ed0000206780001f0a7000cf0a0000004be009c
:100ee00052ff07000800be006420e100070039003f
:100ef00002003a00f1ff2700f0ff2f000160a00080
:100f000012022000024c88005100370009f0a100b5
:100f10000800be000200200003f82300dafe0700ec
:100f2000f4ff3c000800be000200200003982300ec
:100f3000d3fe07000800be0030003500020020008c
:100f400003f02300d0fe070005003c000800be00af
:100f50000801be0062ff07000005be000e0037005a
:100f60000c10a2000000200001f823000801be00c0
:100f700090fd07000200200003f0230058ff070047
:100f80000005be008aff07000200200003002c00bd
:100f900053ff07000004be000a00be00b2d02800c4
:100fa000130b2c0084fd07000a01be004cff070054
:100fb000020f2500330b24007ffd0700809fbe0039
:100fc0000a00be005206220013f02b0044ff070067
:100fd000b2662100f3f6230077fd07000a01be0088
:100fe0003fff07004f01be0054fe07000801be008e
:100ff0003bff07000801be006ffd07000c00a700c3
:1010000007003700b2fd200093fc23000c10a7005e
:1010100069fd07000cf0a70001f0a2000c003700ea
:101020000cf0a7000200370001f0a2000400370016
:10103000b2fd2000930424000c10a600030037002a
:10104000b2fd200093fc23000c10a7005afd0700fe
:101050004f06be004f05be004f04be000000060054
:10106000889fbe008a9fbe00841f780004ff07008f
:101070004f00780011003300f0ff2f00838f6c00c9
:1010800006003b00040565000a00a70008003700c1
:1010900009f0a6001000200008003700820f54005d
:1010a000838f5c00030039001000200001003e0027
:1010b0000000200009f0a7000000ea004f05be0074
:1010c0004f04be000000e00000000600881f78000a
:1010d000030478000300e00007003d0060001000fa
:1010e000e080180060011900e081190002003b0057
:1010f00001f02d00030037000400070008f0a700ee
:1011000001f0a0004f04780000000600889fbe0098
:101110008a9fbe0000827000040271000482710088
:10112000260032000004be000200be006011b800bc
:101130006b092000950220000182cf000a003900cf
:101140000541b1000082cf00070039000541b10020
:101150000982cf00040039000541b1000882cf00a8
:10116000010039000541b100054252001200320071
:101170000a003b0082817100610164008100d1009e
:101180000080d3008984d3000884d3008b05e80055
:101190000442e800f7ff3a00070037000804440063
:1011a00089844c0000004800818048008b05e900dc
:1011b0000442e900f9ff3a0076fe07004f05be0041
:1011c0004f04be00000006000000fa0068815700ce
:1011d000cfb8970080bb20006e0507000080fa00a2
:1011e000000006000000fa0068815700cfb89700a1
:1011f00080bb2000670507000080fa0000000600a1
:101200000000fa0068815700cfb8970080bb20002b
:10121000600507000080fa0000000600889fbe00fd
:101220000104780038029000e20262008084eb0042
:101230003b003200040378000620b20098029000c0
:1012400002003a00e08f520035003a000490a000fe
:101250003404980080047800f90fb200e08f520047
:1012600002003a00a8029000050c7800ea8f5400b2
:1012700005003a000408b20003003a008800780034
:10128000d0002000e5ff070018029000d80290006f
:10129000850f52000b0032000402e800140498008d
:1012a00018027800094a7800040ce80015c0b30061
:1012b00024bd2000054a7800ea8f540018003a0047
:1012c0000500370088007800094078001700070003
:1012d0008004780012003700380290000410b20039
:1012e0000f00320018019000a80090004800900004
:1012f0005200070018029000840f500004003200d2
:10130000380290000403b300340498008084eb009a
:101310000002eb001404980028029000040c7800ee
:10132000090078004f04be00000006000200fa0029
:10133000889fbe00a0ff9f00010478003802900043
:10134000840278000504b200020032000000fb00b5
:1013500035003700e202620005003a000403b300e2
:1013600034049800150498000080eb002e0037002c
:10137000d8049000e08f540006003a0012002000cc
:10138000e6805700480090002c00070019049800e0
:1013900023003700a8029000e08f520008003a00b6
:1013a00055bd200025049800050c7800250020007c
:1013b00055049800150498000430a00034049800e7
:1013c00018019000a8009000480090001b00070042
:1013d000280290008082eb0015049800affa970075
:1013e000054a7800040ce8002ffa9700ea4f5200f3
:1013f0000b003a00380290000410b20008003200de
:1014000018019000a8009000480090000b00070011
:101410000002eb0014049800a8029000050c78006c
:101420002ffa97000400fb004f04be000080fa0072
:101430000000060000c0da00000006000a00fa0002
:10144000e20f500022003e00f44b8000e10f5200fa
:10145000060032008723200046232000242320009a
:1014600005232000e08f530004003a00872220006b
:10147000462220002422200005222000000028000f
:101480001500600003003a00800b78000700280078
:10149000958a7300054020009482620001003a00a2
:1014a00014a0a000820278000600370094037800a0
:1014b0000710b200fdff3200b103fb00070b7800fc
:1014c0008502e900e08f5200f8ff3a00080037007b
:1014d00034002000b4bf9f00c0bf9f00d1bf9f0059
:1014e000e2bf9f006a805700d2ff07006fb99700e4
:1014f000020078000080fa00000006002800fa00d0
:10150000889fbe008a9fbe008c9fbe0007067800a1
:10151000878669000c003b0003047800870478008c
:1015200008f0a10009f0a100840f5000858f580039
:10153000860f5900890f5c00030033000cf0a200f5
:1015400001003a000cf0a100fe0007006400e10079
:101550005f003200780147006408e100610032005a
:101560006c014700748557003200be001201be00b6
:101570003a04be001a05be001e039000be0a900089
:101580008503530006003d000004fd008104fd00ba
:101590000205fd008305fd008703ea0005037800ce
:1015a0000df8a3000400320060041400e0841c0065
:1015b00060051d00e0851d006022b8007d0320004d
:1015c0000d38e1008006eb000b0039004433dd00ec
:1015d000f300b20083017300390037008482720087
:1015e0000d027800e10664008b85d1000a85d300e6
:1015f0008984d3000884d3008703e900f7ff3b0008
:1016000008004000898048000a0149008b81490098
:1016100004003b0060001000e08018006001190029
:10162000e08119000358a300090032008d82720086
:1016300084827200610260008301d1000281d300c4
:101640008180d3000080d3000603e8001b00370030
:101650000348a30017003a000600e000170034001a
:101660000603e9000d00a300000048008180480047
:1016700002014900838149000348a3000f003a009a
:101680000600e000090034000603e9000000400005
:1016900081804800020149008381490001003a002d
:1016a0000003eb000348a300f5ff32006022b800fe
:1016b00002003700848272006182660075000700b4
:1016c00003f0a1000cf0a70003f0a000b100370068
:1016d000640147006408e10002003a000df8a3002d
:1016e000a9003a003200be001201be00a900370076
:1016f0008f1fd100fa0207008f87e9000000e00089
:1017000000000600809feb00f50207008f87e900cc
:101710000000e000000006002800fa00889fbe00dc
:101720008a9fbe008c9fbe0003866b008500070069
:101730006400e100440032006408e1004a00320025
:101740006100e100460032006108e100490032001a
:10175000ec0647006000b8003d02be003d03be003d
:10176000f48657006011b8003d04be003d05be0080
:101770007d0320000b0037000000a0008d06e9006b
:10178000130032000402420085824a0006034b0027
:1017900087834b000000400081804800020149001f
:1017a000838149000802520089825a000a035b00c3
:1017b0008b835b00f0ff3b000802420089824a00f5
:1017c0000a034b008b834b008d06e900edff3a00c6
:1017d0008482720086827200f707b20087827200ec
:1017e00001003200150020001e0490003e0b900006
:1017f00006035400e63fb0000368a3000700320070
:101800000000a7000500a0008301d1000281d300e1
:101810008180d3000080d3000603e8008301d1005b
:101820000281d3008180d3000080d3000002eb004e
:101830000482d2001700070003f0a1000cf0a700fb
:1018400003f0a00053003700640247006408e10081
:101850004d0032003400be003401be00f6ff3700f8
:101860006108e100480032006011b8006000b80073
:10187000f1ff370003ff270002002000fbff3700c5
:10188000801feb00960207008f87e9000000e00050
:101890000000060018002000570020000804530034
:1018a0000d003d000600200097fc2f000740e100de
:1018b0001e00340084827200610260008301d10046
:1018c0000281d3008180d3000080d3000804e800a7
:1018d000f8ff3a004700200061046000050474002e
:1018e000040464000d00320061004000e080480004
:1018f00060014900e081490003b8a50007003200fb
:101900000603e8006538e10004003a008301d100d5
:101910000281d3008180d3000080d300f87f2000b3
:101920000830e10003003500080378006000b800cb
:101930006011b8004433dd00f300b200830173008e
:1019400000000600680447000294be000094be0038
:10195000fc0447008694be008494be000900780011
:10196000a802070008007800a60207009900780086
:10197000814f70000b003b000800be008102070091
:101980004f00b10003003700f3ff2700f2ff2f00e4
:101990006110b9004f06be004f05be004f04be00e7
:1019a0000080fa0000000600810378009ffc070019
:1019b0000001be006000b8000478a30013003a00e4
:1019c0006220e10015003e000d0039008301d100c6
:1019d0000281d3008180d3008301d1000281d30032
:1019e0008180d3008301d1000281d3008180d300a4
:1019f0000538b000c42add00f300b2008381720014
:101a000007f0a70003f0a00000000600f3ff270086
:101a1000f2ff2f006110b900fbff370003ff270022
:101a2000f7ff37001400fa00889fbe008a9fbe00af
:101a30008c9fbe000004be000205be006800470087
:101a40000a90be000890be006e0207000070a7005a
:101a50000bf0a1000bf8a30020003a009e099000b3
:101a60000e099000fe0090006e0090009e02900013
:101a70003443200084825200c6ff32000a003c003a
:101a8000b4fc2f000428e100140034008301d100cd
:101a90000281d3008180d3000080d3008502e8005a
:101aa000faff3a00bbff3700b40020000428e10031
:101ab00007003c000000400081804800020149000e
:101ac000838149008502e900faff3a00b1ff37003f
:101ad0000300280002002000010037006011b80058
:101ae0006000b800abff3700889fbe000082700026
:101af0000402710004827100240032003643200089
:101b0000c50020008383cf000a0039000541b100e1
:101b10008283cf00070039000541b1008183cf00e7
:101b2000040039000541b1008083cf000100390075
:101b30000541b10085c353006022b8001200320095
:101b40000a003b0084827200610260008301d100c0
:101b50000281d3008180d3000080d3000603e80017
:101b60008743e800f7ff3a00070037000000400015
:101b70008180480002014900838149000603e90091
:101b80008743e900f9ff3a0042ff07004f04be0017
:101b9000000006001400fa00889fbe008a9fbe0065
:101ba0008c9fbe00040678000004be000205be0043
:101bb000680047000a90be000890be0011020700ae
:101bc0006200e1000800be000a01be00040020001f
:101bd0000b003a001e029000e43fb1006e0090003e
:101be000fe0090000e0990009e099000f300b200e4
:101bf00005fe2300858171000bf0a70003f0a00013
:101c0000040e780063ff37002800fa00889fbe00aa
:101c10008a9fbe008c9fbe0003866b0049ff0700b1
:101c20000028a30064003a000128a30067003a00de
:101c30000008a30062003a000108a30065003a0012
:101c40001e009000be08900081064000ed3fb100ec
:101c5000f4805700ee019000111ab8008e09900030
:101c6000311bb8009e099000311cb800511db8000e
:101c7000f485570046000700fe0190003a00070077
:101c80008b85e8003e0007008e09900040000700a9
:101c9000ee019000340007008b85e8003800070053
:101ca0008e099000400007009e0990001b18b800a4
:101cb000890440000a854800fe01900034000700b6
:101cc0008b85e80038000700ee0190003000070027
:101cd0008e0990001b18b800890440000a8548004e
:101ce0000a98a30008003a000402420085824a00d4
:101cf00006034b0087834b0008044c0089844c008a
:101d00000a054d008d06e900848272008502730089
:101d10004c3add00850272000100320015002000ff
:101d2000443ade001400b2004538de00cb45dd0049
:101d30000b007000c540de00cb4ddd008b807000d5
:101d40004549de00cb55dd000b017100c551de00b9
:101d50000d037800cffe070003f0a1000cf0a700f0
:101d600003f0a0000bff37001b18b80085024000ed
:101d700006834800e0834b0060044c0007003700f6
:101d80001b18b8000603400087834800faff37009d
:101d90001b18b8008703400008844800e0844c000a
:101da00060054d00000006001b18b8000804400044
:101db00089844800faff37000108a300f2fe3a00c8
:101dc0005800be005801be00e3ff37000008a30022
:101dd000edfe3a0009047800f9ff370007f0a20091
:101de000c6fd37001400fa00889fbe008a9fbe001f
:101df0008c9fbe000005be000206be0068004700c2
:101e00000c90be000a90be007e0107006400e10055
:101e10001a00320016003e006100e1001a00320094
:101e20006e049000fe0490000e0b90009e0b90003c
:101e30006011b8009e0590000b38b100d50120005c
:101e400082817100610164008703d1000683d300a1
:101e50008984d3000884d3008502e900f8ff3a00a2
:101e60004cfb07000df0a70001f0a000c9fe3700f1
:101e7000f1ff2700f0ff2f00c6fe370001f8270012
:101e800000002000f7ff37006000b800f5ff3700c2
:101e9000889fbe008a9fbe003004be002005be00a1
:101ea0000404440085844c0006054d0087854d00e0
:101eb0000898be000a90be000440e10005c8e10099
:101ec00006d0e10007d8e1000200310068004000c0
:101ed0001008e8004f05be004f04be0000000600d9
:101ee0001000fa00889fbe008a9fbe000605be0053
:101ef0000404be003002be002003be00c4b79f0031
:101f0000d5b79f00e6b79f00f7b79f0008025200c1
:101f100089825a000a035b008b835b0084bf9f00a9
:101f200095bf9f00a6bf9f00b7bf9f000498be004b
:101f30000698be00110020004fb29700dfb2970054
:101f40006fb39700ffb397000820e10009a8e100f4
:101f50000ab0e1000bb8e100010039008000eb009d
:101f6000108810004f05be004f04be000080fa002c
:101f7000000006001400fa00889fbe008a9fbe0081
:101f80008c9fbe003f0007000605be000404be0093
:101f90000006eb00ccb79f00bcb79f00acb79f001a
:101fa0009cb79f008cb79f000d0420004fb3970093
:101fb000bfb29700860343002fb29700e00f530093
:101fc00004003d003d0007000f004000b0ff070087
:101fd00003003700390007000f004000c0ff070072
:101fe000cfb2970095bf9f00e08f520009003500e7
:101ff0002b00070014002000050020006033b8000b
:1020000000007200818072000201730083817300fe
:102010001c0007000c06e8008d0f5600e3ff3a0095
:102020001fba9700e00f520005003d000802be00f5
:102030000a03be0000fe2f000f00400094ff0700bf
:102040004faa9700e00f520008003a000fb4970023
:102050009fb497002fb59700bfb59700d8b79f00e2
:10206000e9b79f00fab79f008bbf9f000c000700e5
:102070004f06be004f05be004f04be000080fa00b0
:1020800000000600010007000000060090b79f0056
:10209000a1b79f00b2b79f00c3b79f000000060022
:1020a00001000700000006001fb09700afb09700c6
:1020b0003fb19700cfb19700000006004f2bde0024
:1020c00087037300a7b79f004f23de00858242007d
:1020d0008502730095b79f00ffaa97004f2bde0083
:1020e000040242000402730084b79f006faa9700a5
:1020f0004f23de008582420085027300f5af9f000a
:10210000e9ff07004f18de000402420000027200df
:10211000e4af9f00e4ff070000004000818048001a
:102120000201490083814900d8ff07000802be0070
:102130000a03be0000fe2f0000000600881f780082
:1021400018002000881f78008aff07008f87e900a9
:102150004f04780000000600801feb0085ff070099
:102160008f87e90000000600889fbe008a9fbe009e
:10217000e00f5000e08f5800e00f5900e08f590049
:102180000c003d006044b8006055b80000005400e9
:1021900081805c0002015d0083815d0018002000e9
:1021a0001500070008003d00180007000004eb00c0
:1021b000050037000004eb000f00070002003d009f
:1021c0001200070018002000dcff0700e00f540099
:1021d000060032006022b8006033b80000005200f0
:1021e00081805a0002015b0083815b004f05be00c5
:1021f0004f04be0000000600e00f5200e08f5a00be
:10220000e00f5b00e08f5b00000006006044b80058
:102210006055b8000402540085825c0006035d002e
:1022200087835d0000000600889fbe008a9fbe0075
:102230008c1f7800e00f5000e08f5800e00f59002d
:10224000e08f59000d003d006044b8006055b800b3
:102250000000540081805c0002015d0083815d000c
:102260001c0020000820e10009a8e1000ab0e100fc
:102270000bb8e1000d003d00080037000006eb0040
:10228000e00f5200e08f5a00e00f5b00e08f5b0030
:1022900006003d006044b8006055b80004025400d8
:1022a00085825c0006035d0087835d00aaff07004e
:1022b000e00f5600060032006022b8006033b8001c
:1022c0000000520081805a0002015b0083815b00a4
:1022d0004f0678004f05be004f04be000000060008
:1022e000889fbe008a9fbe008c9fbe000404be0073
:1022f0000605be00809fbe00829fbe002f00070023
:10230000040678000800be000a01be002b0007008a
:10231000840678004f03be004f02be008d4f76004a
:102320007fb0970013003300f0ff2f008b8f6b00fe
:1023300006003b000d0666000c00a7000a003700ef
:1023400007f0a600100020000a003700880f520096
:10235000898f5a008a0f5b008b8f5b000300390066
:102360001000200001003e000000200007f0a70040
:102370000000ea004f06be004f05be004f04be003d
:1023800000000600e48240001078a300070032003d
:10239000640240001178a3003400be001401be00a6
:1023a000040032000330a700000006003500be0024
:1023b0001501be000330a0000000060005ff270045
:1023c00005826100070032000428e10001003200ac
:1023d000240005000600070001003a004400050043
:1023e0000408050002000700f9ff3a001400050088
:1023f0006f826100810270008502710085027200a7
:1024000000000600800078005002be005003be00ad
:102410004439de00f700b200f37f200003016100c1
:10242000090032000218e10016003a00850172002e
:1024300083017300838173000008200015003a00b7
:1024400040002000130037008501720083017300f3
:102450008381730005003a0004a8be0006a8be00f0
:10246000100020000b0037000201e90004024200c6
:1024700085824a0006034b0087834b000748a30070
:10248000f9ff32000740a00004a8be0006a8be0065
:1024900020002000800098009200980000000600b4
:1024a0000800fa00889fbe008a9fbe000084fb00df
:1024b000d4c6b300844f5000340036004b062000d1
:1024c000110009000b84d8008105780072004000db
:1024d0004300dd0029a32000008044006022b800f2
:1024e0000600200007fe23005001be004000be0091
:1024f000c5fd07000002be000203be0084bf9f00ae
:1025000095bf9f00a6bf9f00b7bf9f00aa002000f5
:10251000110009008a85d80080057800e98545000a
:10252000c35ddd008b8544003b02be002b03be0073
:102530000fb897009fb897002fb99700bfb99700c1
:10254000b1fd07000002be000203be0084bf9f0071
:1025500095bf9f00a6bf9f00b7bf9f001100090055
:102560000a84d800010478004344dd0088844400d4
:102570003902be002903be000fb897009fb897002c
:102580002fb99700bfb997001d003700ea4f5000e0
:1025900013003600aa002000110009000a84d800a8
:1025a00001057800690440004344dd0029a32000b0
:1025b000088444006022b8000600200007fe2300c3
:1025c0003800be002801be008ffd07004355dd0026
:1025d0008a8444003902be002903be000800370087
:1025e0004344dd0024a32000080442006022b80018
:1025f0000600200007fe23003800be002801be00b0
:1026000081fd07004f05be004f04be000080fa00a8
:10261000000006000800fa00889fbe008a9fbe00e6
:10262000d4c6b300e04f500022003d000040ea0055
:102630000004fb00844f50000a00340044062000d0
:10264000110009000404d800a900200011000900ad
:102650008900d800e9004000c308dd002aa320005b
:1026600020003700ea4f50000f003400a400200083
:10267000110009000404d800690040004300dd0097
:1026800024a3200000004200430cdd0008024200a9
:102690005403be004402be005001be004000be0014
:1026a00059fd0700370037004344dd0024a3200014
:1026b000310037000004fb00844f50002300340039
:1026c00044062000110009000404d800a9002000dd
:1026d000110009008900d800e9004000c308dd00ae
:1026e0002a982000810045003102be002103be006f
:1026f0008b0920008a8545003b00be002b01be00ef
:1027000041fd07000002be000203be0084bf9f001f
:1027100095bf9f00a6bf9f00b7bf9f001100090093
:102720000904d800010478004344dd000805450091
:102730003a02be002a03be000fb897009fb8970068
:102740002fb99700bfb99700d5ff3700ea4f500067
:1027500007003400a4002000110009000404d80080
:10276000690040004300dd0024982000c5ff3700c9
:102770004344dd0024982000080442003800be00d5
:102780002801be004f05be004f04be000080fa00c5
:10279000000006002f04b000889fbe008a9fbe0084
:1027a0008c9fbe008e1f7800a0af9f00c1a79f0026
:1027b000b2af9f006000b8006011b800d0a79f00c2
:1027c000e1a79f00f2a79f0083af9f008006eb0068
:1027d0002f043700cfa097008100e800c1a79f0019
:1027e00054c2b300844f500006003a000103780041
:1027f0000006eb0000c3b30007c2b300b1c2b300d0
:10280000070037000000fb00afa8970083fa07001d
:10281000e10f40001e0432008d06e8001c04370062
:1028200006027800b6427800d2c2b30082cf5200ce
:102830000900320005003c0087cf5200080032003a
:1028400081cf52000c003a000700370080cf5200c1
:1028500009003a00060037000c30a000f0ff3700f6
:102860000c00a000eeff37000c10a000ecff3700ba
:102870000c20a000eaff370062036600010032006e
:102880000c00a10068036600010032000c20a100ca
:102890000503fb000603b100e90f53000d003e00e5
:1028a00084027800070020006a3bb9003502fb0073
:1028b0000403b10086034200050278001503fb0003
:1028c0000603b100e90f5300f7ff360097af9f00f2
:1028d0000a0037000003eb0096af9f00a6c2b300ca
:1028e00086cf520005003a00bfab97004700780042
:1028f000b7af9f0090af9f000402e800e5c2b300ad
:1029000094cf120017003a000ce0a000e4c252007d
:10291000d4cf1200030032008402780007002000a8
:10292000090037003fa99700c2017800b2af9f00ad
:1029300083b79f000402e800c6c6b3000d0037004d
:102940006a38b90080034300050278003503fb00b4
:102950000603b100e90f5300f9ff360087b79f0067
:10296000f5ff37000cc0a0008002eb0085b79f0088
:10297000f1ff370084037800b7427800070278003f
:1029800086cf52002d003200c7a79f00c4c6b300f7
:1029900084cf520014003c006842520084cf5200a1
:1029a0002400320009003c006c42520084cf5200e7
:1029b0002e0032006b42420084cf52007100320080
:1029c000e0cf5200b70332008e00370064c6b30078
:1029d00084cf52001f0032006342420084cf520075
:1029e00088003a001300370034c7b30084cf520088
:1029f0002200320007003c006442520084cf5200a3
:102a0000170032000442e80084cf52007d003a00f3
:102a10001600370054c7b30084cf52007e00320046
:102a20006342420084cf520076003a00a5779f00af
:102a300010003700a5779f0079003700f00366008b
:102a4000050120000100320005002800050676007f
:102a5000c8ff3700a5779f000ca0a00070003700ca
:102a6000a5779f000c60a0006d003700a5779f0040
:102a70000c50a0000c70a00069003700a5779f00e3
:102a80003fab970046027800b6af9f000404780081
:102a9000e00f520001003a0048ba20008802780096
:102aa0000002eb00010037000402e80065437a00f1
:102ab000e04f5300fcff3a00840478008fb3970086
:102ac000e08f530003003200898f53000100310072
:102ad000870478000007eb001fa89700890f5000bb
:102ae00001003600090750006806660014003a002d
:102af00007003700afa8970000022000c7f90700c1
:102b0000e10f4000010032008d06e8000e07e900e9
:102b1000e00f5700f7ff3a000087eb00080037008e
:102b2000080278003400fb0004047800afa8970086
:102b3000baf90700e10f4000010032008d06e800fd
:102b4000090278008404e900e00f5200f4ff3a0023
:102b5000e00f56004e03320007003700afa8970081
:102b600000022000adf90700e10f40000100320033
:102b70008d06e8000e07e900e00f5700f7ff3a0066
:102b800043033700bfa8970041027800b1af9f0010
:102b900004007800cf80de00010178008201780017
:102ba000c0af9f00d1af9f00e2af9f00f3af9f0087
:102bb0004800de00480add0000007200a0779f0098
:102bc000f002660009003200e04f500007003200ba
:102bd000e14f400005003200b0779f008fda970088
:102be000c5779f0029002000030037000fdb970006
:102bf000b6779f001900200038fb2f000f04440017
:102c0000aeff3700a5779f0028fb2f000f0444007c
:102c100019002000a9ff3700a5779f000c0cb30016
:102c20000470200004026600ba0132000400210092
:102c300004026600020032006700200087b79f0090
:102c400070026600090032003faa97004401be00ee
:102c50004400be00b4af9f00c0af9f00d1af9f0043
:102c6000e2af9f00f3af9f000a003700bfaa9700b2
:102c70004500be00b5af9f004bfb07000002be0041
:102c80000203be00c4af9f00d5af9f00e6af9f0018
:102c9000f7af9f006022b8006033b8004fa89700dc
:102ca000dfa897006fa99700ffa9970090fa070087
:102cb000e00f50000a003d004fa89700dfa89700e2
:102cc0006fa99700ffa9970003f0a200c0af9f0073
:102cd000d1af9f00e2af9f00f3af9f003c00b30075
:102ce0000002eb00b49f9f006022b8006033b80080
:102cf0004fa89700dfa897006fa99700ffa997003a
:102d0000dffa0700e00f5000350032004fa89700af
:102d1000dfa897006fa99700ffa9970031fc070073
:102d200062fb2f000f0141009afb07003f989700bc
:102d30000000e9006300b900a400200011000900b0
:102d40000400d800b09f9f00e00f500002003d003b
:102d50000000e900b09f9f003f9c97000840ea00f8
:102d60002cfe07004faa9700dfaa97006fab9700d1
:102d7000ffab9700a4fb07000002be000203be00e9
:102d8000d4a79f00e5a79f00f6a79f0087af9f00ed
:102d90006022b8000600200007ff230054fa070055
:102da000e00f500002003d000804e9000b0037006e
:102db0006022b80006002000470224005fa09700b0
:102dc000efa097007fa197008fa997004dfa070009
:102dd000e00f5000020035000804e800b89f9f0093
:102de0008fb29700f88f52000f003c00054078002a
:102df000abfd07000002be000203be004fa8970013
:102e0000dfa897006fa99700ffa99700bbf90700fb
:102e10000002be000203be00c4af9f00d5af9f00fa
:102e2000e6af9f00f7af9f003f9c9700e90f54006b
:102e300015003c006022b8006033b8004fa897002e
:102e4000dfa897006fa99700ffa997008cfa0700e9
:102e5000e00f5000320032004fa89700dfa8970023
:102e60006fa99700ffa99700eefa0700e00f500046
:102e7000e08f5800e00f5900e08f590028003a0019
:102e8000e10f5400260034000400200005002e004d
:102e9000b6e02200170124005fa09700efa0970082
:102ea0007fa197008fa9970011fa0700e00f50004b
:102eb00002003d0073045400010037007204540006
:102ec000b89f9f006f709700d2fd07000002be0000
:102ed0000203be00d4a79f00e5a79f00f6a79f00ae
:102ee00087af9f004fa89700dfa897006fa99700b2
:102ef000ffa9970008fa0700cafa07000205be00fa
:102f00000004be006000b8006011b800c0af9f00b0
:102f1000d1af9f00e2af9f00f3af9f0017003700d3
:102f20004fa89700dfa897006fa99700ffa9970007
:102f3000bcfa07000205be000004be00eafa070062
:102f40000002be000203be004fa89700dfa8970052
:102f50006fa99700ffa99700a0fb07000002be0021
:102f60000203be00c4af9f00d5af9f00e6af9f0035
:102f7000f7af9f000002eb00b49f9f00a1ae2000be
:102f800010c0b300080037003102be003103be009c
:102f90000440e10005c8e10006d0e10007d8e100e7
:102fa000030039000040e800f44f5000f6ff3a00fb
:102fb000a0779f003f9a97009faa97000482520033
:102fc0000fb39700060252000000fb0000075200fa
:102fd000e00f5300010032000e07e90063026600b3
:102fe000010032000e07e900640266001d00320095
:102ff000e202660061026600e08f520006003200c5
:10300000b0022000e00f5200010032000080e80012
:10301000afa8970004003700e00f52000e00320006
:10302000afa89700000220007cf80700e10f4000e5
:10303000090032008d06e80007003700afa89700ae
:103040000003200075f80700e10f40000100320086
:103050008d06e8000e07e900e00f5700f7ff3c007f
:1030600030003700680266000a003a0007003700a7
:10307000afa897000002200068f80700e10f4000a9
:10308000010032008d06e8000e07e900e00f57004e
:10309000f7ff3c00e202660061026600e08f52002a
:1030a00006003200b0022000e00f520001003200a2
:1030b0000080e800afa8970016003700e00f52002c
:1030c00018003200afa8970000022000110037005e
:1030d0008502fb00c32add0027ae20008582430065
:1030e0005503be004502be000800be000a01be0036
:1030f00012fc0700a4002000050020006033b80087
:1031000015fc07000403200000024200afa897004e
:103110000400780041f80700e10f40000100320090
:103120008d06e8002f7297008442e900a5779f0082
:10313000e04f5200e6ff3a0008003700afa89700c2
:103140000003200035f80700e10f400001003200c5
:103150008d06e8000804e900b89f9f003f9c970097
:10316000e00f5400f5ff3c000fb09700f20f500045
:103170000300340024c1b300a4779f00020037008d
:103180008fe09700a1779f002f7297008402fb00c9
:103190000fb197008502510095af9f00e04f52009c
:1031a00006003200afa89700e00220001bf80700dd
:1031b000e10f4000010032008d06e8002f709700fb
:1031c00014fd07000002be000203be004fa89700d6
:1031d000dfa897006fa99700ffa997008afa070058
:1031e00010fa0700220037008502fb00c32add0029
:1031f00023ae2000858241003500be002501be00bf
:1032000080b79f0091b79f00a2b79f00b3b79f0000
:103210000203be000002be000800be000a01be009c
:10322000c6fb0700a4002000050020006033b800a2
:10323000c9fb07000403200000024200afa897006a
:1032400004007800f5f70700e10f400001003200ac
:103250008d06e8000fb297009fb297002fb397003a
:10326000bfb397000800be000a01be00bafb07000a
:103270000205be000004be002f7297008442e900e0
:10328000a5779f00e04f5200d7ff3a000203be002f
:103290000002be009fac97000f003700afa8970058
:1032a00000032000c4b79f00d5b79f00e6b79f007a
:1032b000f7b79f00d9f707004fb29700dfb297002a
:1032c0006fb39700ffb39700e10f40000100320099
:1032d0008d06e8008904e900e08f5400efff3a0012
:1032e000680666006a013200e00f5700680134008a
:1032f000afa8970000022000c8f70700e10f4000c8
:10330000010032008d06e8000e07e900f8ff3a00e0
:103310005f0137008c027800050cb2002b003a00e8
:10332000e00f560005003d00bfa897004105be0014
:103330004104be00b1af9f00170037007002660065
:103340000f0032003faa97004401be00b4af9f00b7
:1033500082a79f0093a79f00840278001502900027
:103360004fa2de00a4a79f00b4a79f000fa4970060
:103370009fa497002fa59700bfa5970006003700d0
:10338000bfab970047047800b7af9f00cfc4de0003
:10339000090578008a057800e00f5400e08f5c0092
:1033a000e00f5d00e08f5d0023003d003c00b300b6
:1033b0006022b8006033b8000804520089845a00c3
:1033c0000a055b008b855b001b003700e00f560091
:1033d00005003d003fa897004005be004004be0028
:1033e000b0af9f0014003700f00266000c003200fe
:1033f000bfaa97004501be00b5af9f00c29f9f00c6
:10340000d39f9f00e49f9f00f49f9f004f9c9700d5
:10341000df9c97006f9d9700ff9d97000600370087
:10342000bfab970047047800b7af9f0009002000aa
:103430000a0020000b0020000fb09700e00f5000a2
:1034400009003a001100200081b79f00e00f5400ee
:10345000e08f5c00e00f5d00e08f5d000200320055
:103460000001eb0082b79f008c017800030cb200d2
:10347000c3af9f0004042000848f51002c00320051
:1034800003003c00e08f5100080032003c00370090
:1034900004082000cfaa9700848f52001000320049
:1034a000040c2000848f520035003a00a5ae2000a5
:1034b00014c0b3003500be003501be000040e1007d
:1034c00001c8e10002d0e10003d8e1002b0039007f
:1034d0000442e800f44f5200f6ff3a00270037009c
:1034e00014c0b30000012000010020006011b800ea
:1034f0000040e10001c8e10002d0e10003d8e10092
:103500001e003900460020000000d0008180d2005b
:103510000281d2008381d2000603e900faff3a005b
:103520000442e800f04f5200f1ff3a001300370068
:1035300014c0b30080002000010020006011b8001a
:103540000040e10001c8e10002d0e10003d8e10041
:103550000a003900370020000000d0008180d2002e
:103560000281d2008381d2008703e900faff3a008a
:103570000442e800f54f5200f1ff3a00a4779f00a3
:103580002f7097000002fb008fb09700810f520050
:1035900002003d00a1779f00040037000fb19700a3
:1035a000840f510001003d0084b79f009fa9970040
:1035b000e08f510004003200630266000200320016
:1035c0008301e90093af9f00040024000402660019
:1035d000090032001faa97008fb29700850f520092
:1035e000030034000502520094af9f000200370030
:1035f0000003eb0096af9f00af7397000702fb003c
:103600000007eb001fa89700840f50000100340052
:1036100004075000640266001c003200e2026600eb
:1036200061026600e08f520006003200b002200006
:10363000e00f5200010032000080e800afa89700c0
:1036400004003700e00f520006003200afa89700d8
:1036500000022000f1f60700e10f400001003200f7
:103660008d06e800e00f570075003200afa8970004
:1036700000032000e9f60700e10f400001003200de
:103680008d06e8000e07e900f6ff3700e00f57004f
:103690000a0032006802660008003a00afa89700ee
:1036a00000022000ddf60700e10f400001003200bb
:1036b0008d06e8000e07e900f8ff3a00e202660016
:1036c00061026600e08f520006003200b002200066
:1036d000e00f5200010032000080e800afa8970020
:1036e00004003700e00f520055003200afa89700e9
:1036f00000022000c9f60700e10f40005000320030
:103700008d06e8004e0037008fb097008100e90079
:1037100081b79f004fa9970003042000830f510039
:103720003000320003003c00e00f5100080032007e
:103730003b00370004082000cfaa9700848f520076
:1037400014003200040c2000848f520034003a0030
:103750000fb397004332dd0027ae2000070242007e
:103760005403be004402be000800be000a01be00b1
:1037700072fa0700a4002000050020006033b800a2
:1037800075fa07000cc3b3000c464000ac779f00ed
:103790002300370034b920001fa89700e00f500025
:1037a0000100320024b820008fb09700c20add006b
:1037b0000800be000a01be008502e90005003300d2
:1037c0008301d1000281d3008180d3000080d30027
:1037d000f9ff37006f00600064407800a0779f0019
:1037e0000f0037000fb197006312b9000800be0048
:1037f0000a01be00040678000c06e900050033004b
:103800008301d1000281d3008180d3000080d300e6
:10381000f9ff3700674260000443b000a4779f00bf
:10382000af7097000100fb00afa897007bf6070080
:10383000e10f4000060032008d06e800040037006a
:103840000c0178000202b20092af9f008cbf9f0073
:103850008fb19700e08f5100abff3a000fbe970089
:10386000680666000a003200e00f570008003400c6
:10387000afa897000002200068f60700e10f4000a3
:10388000010032008d06e8000e07e900f8ff3a005b
:103890004fa2970014407800a0779f00e04f50009f
:1038a000ccfb3a000d0078004f0778004f06be00b1
:1038b0004f05be004f04be002f04b10000000600fb
:020000040000fa
:100008009402000094020000940200009402000090
:100018009402000094020000940200009402000080
:10002800940200000a450000940200000e4d0000f2
:10003800940200007a450000940200009402000037
:100048009402000094020000940200009402000050
:100058009402000094020000940200009402000040
:100068009402000094020000940200009402000030
:100078009402000094020000ea4500005046000087
:100088009402000094020000940200005e4e0000fa
:100098009402000094020000940200009402000000
:1000a80094020000940200009402000094020000f0
:1000b80094020000940200009402000094020000e0
:1000c80094020000940200009402000094020000d0
:1000d80094020000940200009402000094020000c0
:1000e80094020000940200009402000094020000b0
:1000f80094020000940200009402000094020000a0
:10010800940200009402000094020000940200008f
:10011800940200009402000094020000940200007f
:10012800940200009402000094020000940200006f
:10013800940200009402000094020000940200005f
:10014800940200009402000094020000940200004f
:10015800940200009402000094020000940200003f
:10016800940200009402000094020000940200002f
:10017800940200009402000094020000940200001f
:10018800940200009402000094020000940200000f
:1001980094020000940200009402000094020000ff
:1001a80094020000940200009402000094020000ef
:1001b80094020000940200009402000094020000df
:1001c80094020000940200009402000094020000cf
:1001d80094020000940200009402000094020000bf
:1001e80094020000940200009402000094020000af
:0801f8009402000094020000d3
:020000040000fa
:10020800940200009402000094020000940200008e
:10021800940200009402000094020000940200007e
:10022800940200000a450000940200000e4d0000f0
:10023800940200007a450000940200009402000035
:10024800940200009402000094020000940200004e
:10025800940200009402000094020000940200003e
:10026800940200009402000094020000940200002e
:100278009402000094020000ea4500005046000085
:100288009402000094020000940200005e4e0000f8
:1002980094020000940200009402000094020000fe
:1002a80094020000940200009402000094020000ee
:1002b80094020000940200009402000094020000de
:1002c80094020000940200009402000094020000ce
:1002d80094020000940200009402000094020000be
:1002e80094020000940200009402000094020000ae
:1002f800940200009402000094020000940200009e
:10030800940200009402000094020000940200008d
:10031800940200009402000094020000940200007d
:10032800940200009402000094020000940200006d
:10033800940200009402000094020000940200005d
:10034800940200009402000094020000940200004d
:10035800940200009402000094020000940200003d
:10036800940200009402000094020000940200002d
:10037800940200009402000094020000940200001d
:10038800940200009402000094020000940200000d
:1003980094020000940200009402000094020000fd
:1003a80094020000940200009402000094020000ed
:1003b80094020000940200009402000094020000dd
:1003c80094020000940200009402000094020000cd
:1003d80094020000940200009402000094020000bd
:1003e80094020000940200009402000094020000ad
:0803f8009402000094020000d1
:020000040000fa
:0200000401f009
:04001c00dfff000002
:020000040000fa
:0200000401f009
:04001800e7000000fd
:020000040000fa
:0200000401f009
:040014005f00000089
:020000040000fa
:0200000401f009
:040010008700000065
:020000040000fa
:0200000401f009
:04000c00810000006f
:020000040000fa
:0200000401f009
:0400080007000000ed
:020000040000fa
:0200000401f009
:04000400cf00000029
:020000040000fa
:0200000401f009
:04000000cf0000002d
:020000040000fa
:1038c0000a2a00004932000043200000526500002f
:1038d0006164000020540000657300007420000043
:1038e0003020000050610000737300006564000028
:1038f0002c2000004d5000005539000031350000eb
:103900003020000041640000647200006573000014
:10391000733a000020300000782500007800000095
:103920000a2a000045520000524f0000523a00009f
:103930002049000032430000205200006561000071
:1039400064200000546500007374000020460000ed
:10395000616900006c650000642c000020530000c9
:10396000746f000070700000696e0000672e000028
:103970002e2e0000000a00004d50000055390000b6
:1039800031350000302000005365000074750000e0
:1039900070200000436f00006d7000006c65000037
:1039a00074650000000a00005265000067690000ad
:1039b00073740000657200002063000068650000f9
:1039c000636b000020310000206600006169000088
:1039d0006c650000642c000020760000616c000023
:1039e0007565000020730000686f0000756c0000b2
:1039f0006420000062650000203000007830000084
:103a0000312c00002077000061730000203000009e
:103a100078250000780000000a5200006567000069
:103a20006973000074650000722000006368000084
:103a3000656300006b20000032200000666100001a
:103a4000696c0000656400002c20000076610000b5
:103a50006c75000065200000736800006f75000041
:103a60006c640000206200006520000030780000d7
:103a7000303300002c20000077610000732000002c
:103a80003078000025780000000a00005265000030
:103a90006769000073740000657200002063000015
:103aa00068650000636b00002033000020660000a2
:103ab000616900006c650000642c00002076000045
:103ac000616c00007565000020730000686f0000e5
:103ad000756c00006420000062650000203000006a
:103ae0006230000030300000303100003030000023
:103af000302c0000207700006173000020300000af
:103b000078250000780000000a5200006567000078
:103b10006973000074650000722000006368000093
:103b2000656300006b200000342000006661000027
:103b3000696c0000656400002c20000076610000c4
:103b40006c75000065200000736800006f75000050
:103b50006c640000206200006520000030620000fc
:103b600030300000303000003130000030300000d4
:103b70002c200000776100007320000030780000e6
:103b800025780000000a0000526500006769000007
:103b90007374000065720000206300006865000017
:103ba000636b0000203500002066000061690000a2
:103bb0006c650000642c000020760000616c000041
:103bc0007565000020730000686f0000756c0000d0
:103bd00064200000626500002030000078300000a2
:103be000302c0000207700006173000020300000be
:103bf00078250000780000000a5200006567000088
:103c000069730000746500007220000063680000a2
:103c1000656300006b200000362000006661000034
:103c2000696c0000656400002c20000076610000d3
:103c30006c75000065200000736800006f7500005f
:103c40006c640000206200006520000030780000f5
:103c5000303000002c20000077610000732000004d
:103c60003078000025780000000a0000526500004e
:103c70006769000073740000657200002063000033
:103c800068650000636b00002037000020660000bc
:103c9000616900006c650000642c00002076000063
:103ca000616c00007565000020730000686f000003
:103cb000756c000064200000626500002030000088
:103cc00078300000302c0000207700006173000085
:103cd0002030000078250000780000000a52000023
:103ce00065670000697300007465000072200000c1
:103cf00063680000656300006b200000382000004e
:103d000066610000696c0000656400002c20000002
:103d1000766100006c75000065200000736800008b
:103d20006f7500006c6400002062000065200000d8
:103d300030780000303000002c2000007761000057
:103d4000732000003078000025780000000a000091
:103d5000526500006769000073740000657200001e
:103d60002063000068650000636b000020390000dc
:103d700020660000616900006c650000642c000092
:103d800020760000616c0000756500002073000063
:103d9000686f0000756c0000642000006265000020
:103da0002030000078300000302c00002077000028
:103db00061730000203000007825000078000000ca
:103dc0000a52000065670000697300007465000016
:103dd0007220000063680000656300006b20000033
:103de0003130000020660000616900006c65000051
:103df000642c000020760000616c000075650000f6
:103e000020730000686f0000756c000064200000e3
:103e1000626500002030000078300000302c000087
:103e2000207700006173000020300000782500003a
:103e3000780000000a520000656700006973000006
:103e40007465000072200000636800006563000074
:103e50006b20000031310000206600006169000025
:103e60006c650000642c000020760000616c00008e
:103e70007565000020730000686f0000756c00001d
:103e800064200000626500002030000078300000ef
:103e9000302c00002077000061730000203000000b
:103ea00078250000780000000a52000065670000d5
:103eb00069730000746500007220000063680000f0
:103ec000656300006b2000003132000020660000b6
:103ed000616900006c650000642c00002076000021
:103ee000616c00007565000020730000686f0000c1
:103ef000756c000064200000626500002030000046
:103f000078300000302c0000207700006173000042
:103f10002030000078250000780000000a520000e0
:103f2000656700006973000074650000722000007e
:103f300063680000656300006b20000031330000ff
:103f400020660000616900006c650000642c0000c0
:103f500020760000616c0000756500002073000091
:103f6000686f0000756c000064200000626500004e
:103f70002030000078300000302c00002077000056
:103f800061730000203000007825000078000000f8
:103f90000a52000065670000697300007465000044
:103fa0007220000063680000656300006b20000061
:103fb0003134000020660000616900006c6500007b
:103fc000642c000020760000616c00007565000024
:103fd00020730000686f0000756c00006420000012
:103fe000626500002030000078300000302c0000b6
:103ff0002077000061730000203000007825000069
:10400000780000000a520000656700006973000034
:1040100074650000722000006368000065630000a2
:104020006b2000003135000020660000616900004f
:104030006c650000642c000020760000616c0000bc
:104040007565000020730000686f0000756c00004b
:10405000642000006265000020300000783000001d
:10406000302c000020770000617300002030000039
:1040700078250000780000000a5200006567000003
:10408000697300007465000072200000636800001e
:10409000656300006b2000003136000020660000e0
:1040a000616900006c650000642c0000207600004f
:1040b000616c00007565000020730000686f0000ef
:1040c000756c000064200000626500002030000074
:1040d00078300000302c0000207700006173000071
:1040e0002030000078250000780000000a5200000f
:1040f00065670000697300007465000072200000ad
:1041000063680000656300006b2000003137000029
:1041100020660000616900006c650000642c0000ee
:1041200020760000616c00007565000020730000bf
:10413000686f0000756c000064200000626500007c
:104140002030000078300000302c00002077000084
:104150006173000020300000782500007800000026
:104160000a52000065670000697300007465000072
:104170007220000063680000656300006b2000008f
:104180003138000020660000616900006c650000a5
:10419000642c000020760000616c00007565000052
:1041a00020730000686f0000756c00006420000040
:1041b000626500002030000078300000302c0000e4
:1041c0002077000061730000203000007825000097
:1041d000780000000a520000656700006973000063
:1041e00074650000722000006368000065630000d1
:1041f0006b2000003139000020660000616900007a
:104200006c650000642c000020760000616c0000ea
:104210007565000020730000686f0000756c000079
:10422000642000006265000020300000783000004b
:10423000302c000020770000617300002030000067
:1042400078250000780000000a5200006567000031
:10425000697300007465000072200000636800004c
:10426000656300006b200000323000002066000013
:10427000616900006c650000642c0000207600007d
:10428000616c00007565000020730000686f00001d
:10429000756c0000642000006265000020300000a2
:1042a00078300000302c000020770000617300009f
:1042b0002030000078250000780000000a5200003d
:1042c00065670000697300007465000072200000db
:1042d00063680000656300006b200000323100005d
:1042e00020660000616900006c650000642c00001d
:1042f00020760000616c00007565000020730000ee
:10430000686f0000756c00006420000062650000aa
:104310002030000078300000302c000020770000b2
:104320006173000020300000782500007800000054
:104330000a520000656700006973000074650000a0
:104340007220000063680000656300006b200000bd
:104350003232000020660000616900006c650000d8
:10436000642c000020760000616c00007565000080
:1043700020730000686f0000756c0000642000006e
:10438000626500002030000078300000302c000012
:1043900020770000617300002030000078250000c5
:1043a000780000000a520000656700006973000091
:1043b00074650000722000006368000065630000ff
:1043c0006b200000323300002066000061690000ad
:1043d0006c650000642c000020760000616c000019
:1043e0007565000020730000686f0000756c0000a8
:1043f000642000006265000020300000783000007a
:10440000302c000020770000617300002030000095
:1044100078250000780000000a520000656700005f
:10442000697300007465000072200000636800007a
:10443000656300006b20000032340000206600003d
:10444000616900006c650000642c000020760000ab
:10445000616c00007565000020730000686f00004b
:10446000756c0000642000006265000020300000d0
:1044700078300000302c00002077000061730000cd
:104480002030000078250000780000000a5200006b
:104490006567000069730000746500007220000009
:1044a00063680000656300006b2000003235000087
:1044b00020660000616900006c650000642c00004b
:1044c00020760000616c000075650000207300001c
:1044d000686f0000756c00006420000062650000d9
:1044e0002030000078300000302c000020770000e1
:1044f0006173000020300000782500007800000083
:104500000a520000656700006973000074650000ce
:104510007220000063680000656300006b200000eb
:104520003236000020660000616900006c65000002
:10453000642c000020760000616c000075650000ae
:1045400020730000686f0000756c0000642000009c
:10455000626500002030000078300000302c000040
:1045600020770000617300002030000078250000f3
:10457000780000000a5200006567000069730000bf
:10458000746500007220000063680000656300002d
:104590006b200000323700002066000061690000d7
:1045a0006c650000642c000020760000616c000047
:1045b0007565000020730000686f0000756c0000d6
:1045c00064200000626500002030000078300000a8
:1045d000302c0000207700006173000020300000c4
:1045e00078250000780000000a520000656700008e
:1045f00069730000746500007220000063680000a9
:10460000656300006b200000323800002066000067
:10461000616900006c650000642c000020760000d9
:10462000616c00007565000020730000686f000079
:10463000756c0000642000006265000020300000fe
:1046400078300000302c00002077000061730000fb
:104650002030000078250000780000000a52000099
:104660006567000069730000746500007220000037
:1046700063680000656300006b20000032390000b1
:1046800020660000616900006c650000642c000079
:1046900020760000616c000075650000207300004a
:1046a000686f0000756c0000642000006265000007
:1046b0002030000078300000302c0000207700000f
:1046c00061730000203000007825000078000000b1
:1046d0000a520000656700006973000074650000fd
:1046e0007220000063680000656300006b2000001a
:1046f0003330000020660000616900006c65000036
:10470000642c000020760000616c000075650000dc
:1047100020730000686f0000756c000064200000ca
:10472000626500002030000078300000302c00006e
:104730002077000061730000203000007825000021
:10474000780000000a5200006567000069730000ed
:10475000746500007220000063680000656300005b
:104760006b2000003331000020660000616900000a
:104770006c650000642c000020760000616c000075
:104780007565000020730000686f0000756c000004
:1047900064200000626500002030000078300000d6
:1047a000302c0000207700006173000020300000f2
:1047b00078250000780000000a52000065670000bc
:1047c00069730000746500007220000063680000d7
:1047d000656300006b20000033320000206600009b
:1047e000616900006c650000642c00002076000008
:1047f000616c00007565000020730000686f0000a8
:10480000756c00006420000062650000203000002c
:1048100078300000302c0000207700006173000029
:104820002030000078250000780000000a520000c7
:104830006567000069730000746500007220000065
:1048400063680000656300006b20000033330000e4
:1048500020660000616900006c650000642c0000a7
:1048600020760000616c0000756500002073000078
:10487000686f0000756c0000642000006265000035
:104880002030000078300000302c0000207700003d
:1048900061730000203000007825000078000000df
:1048a0000a5200006567000069730000746500002b
:1048b0007220000063680000656300006b20000048
:1048c0003334000020660000616900006c65000060
:1048d000642c000020760000616c0000756500000b
:1048e00020730000686f0000756c000064200000f9
:1048f000626500002030000078300000302c00009d
:10490000207700006173000020300000782500004f
:10491000780000000a52000065670000697300001b
:104920007465000072200000636800006563000089
:104930006b20000033350000206600006169000034
:104940006c650000642c000020760000616c0000a3
:104950007565000020730000686f0000756c000032
:104960006420000062650000203000007830000004
:10497000302c000020770000617300002030000020
:1049800078250000780000000a52000065670000ea
:104990006973000074650000722000006368000005
:1049a000656300006b2000003336000020660000c5
:1049b000616900006c650000642c00002076000036
:1049c000616c00007565000020730000686f0000d6
:1049d000756c00006420000062650000203000005b
:1049e00078300000302c0000207700006173000058
:1049f0002030000078250000780000000a520000f6
:104a00006567000069730000746500007220000093
:104a100063680000656300006b200000333700000e
:104a200020660000616900006c650000642c0000d5
:104a300020760000616c00007565000020730000a6
:104a4000686f0000756c0000642000006265000063
:104a50002030000078300000302c0000207700006b
:104a6000617300002030000078250000780000000d
:104a70000a52000065670000697300007465000059
:104a80007220000063680000656300006b20000076
:104a90003338000020660000616900006c6500008a
:104aa000642c000020760000616c00007565000039
:104ab00020730000686f0000756c00006420000027
:104ac000626500002030000078300000302c0000cb
:104ad000207700006173000020300000782500007e
:104ae000780000000a52000065670000697300004a
:104af000746500007220000033390000206300005c
:104b000068650000636b00002066000061690000ba
:104b10006c650000642c000020760000616c0000d1
:104b20007565000020730000686f0000756c000060
:104b30006420000062650000203000007830000032
:104b4000302c00002077000061730000203000004e
:104b500078250000780000000a5200006567000018
:104b60006973000074650000722000006368000033
:104b7000656300006b2000003430000020660000f8
:104b8000616900006c650000642c00002076000064
:104b9000616c00007565000020730000686f000004
:104ba000756c000064200000626500002030000089
:104bb00078300000322c0000207700006173000084
:104bc0002030000078250000780000000a52000024
:104bd00065670000697300007465000072200000c2
:104be00063680000656300006b2000003431000042
:104bf00020660000616900006c650000642c000004
:104c000020760000616c00007565000020730000d4
:104c1000686f0000756c0000642000006265000091
:104c20002030000078300000302c00002077000099
:104c3000617300002030000078250000780000003b
:104c40000a52000065670000697300007465000087
:104c50007220000063680000656300006b200000a4
:104c60003432000020660000616900006c650000bd
:104c7000642c000020760000616c00007565000067
:104c800020730000686f0000756c00006420000055
:104c9000626500002030000078300000302c0000f9
:104ca00020770000617300002030000078250000ac
:104cb000780000000a2a00005265000067690000c1
:104cc000737400006572000020760000616c0000c3
:104cd000756500002063000068650000636b0000dc
:104ce0002070000061730000736500006400000024
:104cf0000a2a000045520000524f0000523a0000bc
:104d000020520000656700006973000074650000b0
:104d100072200000766100006c75000065200000c4
:104d200063680000656300006b200000666100009e
:104d3000696c000065640000000a0000477900000b
:104d4000726f000020430000616c00006962000087
:104d500072610000746900006f6e00002043000063
:104d60006f6d0000706c000065740000650000004d
:104d70000a2a000047790000726f000020580000e6
:104d8000206f00006666000073650000742000005c
:104d9000737500006d3a0000202500006c6400006f
:104da00020470000797200006f20000058200000aa
:104db0006f66000066730000657400003a20000012
:104dc00025640000000a00002a47000079720000f4
:104dd0006f200000592000006f660000667300001d
:104de0006574000020730000756d00003a2000001b
:104df000256c00006420000047790000726f0000fd
:104e000020590000206f00006666000073650000f6
:104e1000743a000020250000640000000a2a000007
:104e200047790000726f0000205a0000206f0000d8
:104e30006666000073650000742000007375000052
:104e40006d3a0000202500006c640000204700003f
:104e5000797200006f2000005a2000006f66000089
:104e600066730000657400003a20000025640000ad
:104e7000000a000041630000636500006c20000030
:104e8000436100006c690000627200006174000000
:104e9000696f00006e200000436f00006d7000001d
:104ea0006c65000074650000000a00002a410000e3
:104eb00063630000656c000020580000206f000054
:104ec00066660000736500007420000073750000c2
:104ed0006d3a0000202500006c64000020470000af
:104ee000797200006f200000582000006f660000fb
:104ef00066730000657400003a200000256400001d
:104f0000000a00002a41000063630000656c000095
:104f100020590000206f00006666000073650000e5
:104f200074200000737500006d3a00002025000019
:104f30006c64000020470000797200006f200000c0
:104f4000592000006f660000667300006574000061
:104f50003a20000025640000000a00002a410000f9
:104f600063630000656c0000205a0000206f0000a1
:104f70006666000073650000742000007375000011
:104f80006d3a0000202500006c64000020470000fe
:104f9000797200006f2000005a2000006f66000048
:104fa00066730000657400003a200000256400006c
:104fb000000a00004d6f0000746900006f6e000071
:104fc00020460000726f00006d200000526100005a
:104fd000772e00002e2e0000000a00002a4100005b
:104fe00063630000656c0000202d00002d20000090
:104ff000583a000025660000202d00002d200000fa
:10500000593a000025660000202d00002d200000e8
:105010005a3a000025660000000a00002a470000f6
:10502000797200006f200000202d00002d2000006c
:10503000583a000025660000202d00002d200000b9
:10504000593a000025660000202d00002d200000a8
:105050005a3a000025660000000a00002a4d0000b0
:105060006167000020200000202d00002d2000009e
:10507000583a000025660000202d00002d20000079
:10508000593a000025660000202d00002d20000068
:105090005a3a000025660000000000000a2d0000ba
:1050a0002d2d00002d2d00002d2d00002d2d000098
:1050b0002d2d00002d2d00002d2d00002d2d000088
:1050c0002d2d00002d2d00002d2d00002d2d000078
:1050d0002d2d00002d2d00002d2d00002d2d000068
:1050e0002d2d00002d2d00002d2d00002d2d000058
:1050f0002d2d00002d2d00002d2d00002d2d000048
:105100002d2d00002d2d00002d2d00002d2d000037
:105110002d2d00002d2d00002d2d00002d2d000027
:105120002d2d00002d2d00002d2d00002d2d000017
:105130002d2d00002d2d00002d2d00002d2d000007
:105140002d2d00002d0a00002a2a00002a2a000026
:105150002a2a00002a2a00002a2a00002a2a0000ff
:105160002a2a00002a2a00002a2a00002a2a0000ef
:105170002a2a00002a2a0000202000002020000007
:105180006473000050490000432000005175000086
:1051900061640000636f00007074000065720000bd
:1051a000204300006f6e0000747200006f6c0000fe
:1051b0006c6500007220000020200000202a000002
:1051c0002a2a00002a2a00002a2a00002a2a00008f
:1051d0002a2a00002a2a00002a2a00002a2a00007f
:1051e0002a2a00002a2a00002a2a00002a0a00008f
:1051f0002d2d00002d2d00002d2d00002d2d000047
:105200002d2d00002d2d00002d2d00002d2d000036
:105210002d2d00002d2d00002d2d00002d2d000026
:105220002d2d00002d2d00002d2d00002d2d000016
:105230002d2d00002d2d00002d2d00002d2d000006
:105240002d2d00002d2d00002d2d00002d2d0000f6
:105250002d2d00002d2d00002d2d00002d2d0000e6
:105260002d2d00002d2d00002d2d00002d2d0000d6
:105270002d2d00002d2d00002d2d00002d2d0000c6
:105280002d2d00002d2d00002d2d00002d2d0000b6
:105290002d2d00002d2d0000000000000a540000fc
:1052a000696d00006572000020340000202d0000b0
:1052b000205300006574000075700000204300005a
:1052c0006f6d0000706c00006574000065000000e8
:1052d0000a530000696700006e6100006c20000046
:1052e0004c6f000073740000000000008096000006
:1052f000184c0000004000001c47000000000000a7
:10530000204200000a540000696d00006572000030
:1053100020310000202d00002053000065740000a3
:1053200075700000204300006f6d0000706c00007d
:1053300065740000650000000a4900006e700000fe
:105340007574000020430000617000007475000057
:105350007265000020530000657400007570000045
:10536000204300006f6d0000706c00006574000049
:10537000650000000a45000053430000206500005e
:105380006e640000706f0000696e000074730000ae
:1053900020630000616c000069620000726100001f
:1053a00074650000640000000a540000696d00008c
:1053b0006572000020320000202d00002053000004
:1053c0006574000075700000204300006f6d0000e0
:1053d000706c000065740000650000000a54000055
:1053e000696d00006572000020330000202d000070
:1053f0002053000065740000757000002043000019
:105400006f6d0000706c00006574000065000000a6
:105410000a49000032430000205300006574000078
:1054200075700000204300006f6d0000706c00007c
:1054300065740000650000000a500000574d000030
:1054400020530000657400007570000020430000c8
:105450006f6d0000706c0000657400006500000056
:020000040000fa
:105460000200fa000042eb00044f78000042eb001b
:105470001447980051c7b30000cdb3006b0e07006e
:1054800000427800044f780084c6b3009e42780042
:1054900084cf520009003a009e4278000582fb004a
:1054a000841f780004c62900841f780046ef070097
:1054b000e48757000080fa000000060004c92900b4
:1054c000841f780040ef07008f87e900ffff370057
:1054d0000000fa0012c0b30091c1b30000cdb300c8
:1054e000b80e070032c0b300a1c1b30000cdb300b5
:1054f000b40e070082c0b300b1c1b30000cdb30049
:10550000b00e070082c0b300c1c1b30000cdb3002c
:10551000ac0e07000041eb00d1c1b30000cdb300d9
:10552000a80e07000041eb00e1c1b30000cdb300bd
:10553000a40e07000041eb00f1c1b30000cdb300a1
:10554000a00e07000041eb0001c2b30000cdb30084
:105550009c0e07000041eb0011c2b30000cdb30068
:10556000980e07000041eb0021c2b30000cdb3004c
:10557000940e07000041eb0031c2b30000cdb30030
:10558000900e07000041eb0041c2b30000cdb30014
:105590008c0e07000041eb0051c2b30000cdb300f8
:1055a000880e07000041eb0061c2b30000cdb300dc
:1055b000840e07000041eb0071c2b30000cdb300c0
:1055c000800e07000041eb0081c2b30000cdb300a4
:1055d0007c0e07000041eb0091c2b30000cdb30088
:1055e000780e07000041eb00a1c2b30000cdb3006c
:1055f000740e07000041eb00b1c2b30000cdb30050
:10560000700e07000041eb00c1c2b30000cdb30033
:105610006c0e07000041eb00d1c2b30000cdb30017
:10562000680e07000041eb00e1c2b30000cdb300fb
:10563000640e07000041eb00f1c2b30000cdb300df
:10564000600e07000041eb0001c3b30000cdb300c2
:105650005c0e07000041eb0011c3b30000cdb300a6
:10566000580e07000041eb0021c3b30000cdb3008a
:10567000540e07000041eb0031c3b30000cdb3006e
:10568000500e07000041eb0041c3b30000cdb30052
:105690004c0e07000041eb0051c3b30000cdb30036
:1056a000480e07000041eb0071c3b30000cdb3000a
:1056b000440e07000041eb0081c3b30000cdb300ee
:1056c000400e07000041eb0031c6b30000cdb3002f
:1056d0003c0e07000041eb0041c6b30000cdb30013
:1056e000380e07000041eb0051c6b30000cdb300f7
:1056f000340e07000041eb0061c6b30000cdb300db
:10570000300e07000041eb0071c6b30000cdb300be
:105710002c0e07000041eb0081c6b30000cdb300a2
:10572000280e07000041eb0091c6b30000cdb30086
:10573000240e07000041eb00a1c6b30000cdb3006a
:10574000200e070022c0b300b1c6b30000cdb300e5
:105750001c0e07000041eb00c1c6b30000cdb30032
:10576000180e07000041eb0041c7b30000cdb300a5
:10577000140e0700b4cb2900841f780092ee0700b6
:105780008f87e9000080fa00000006000200fa009e
:105790000042eb00144798000042eb00044f7800f1
:1057a00091c1b30000cdb300a00d07000042780006
:1057b000144798001e429000e14f52000900320049
:1057c0001e4290000482fb00841f780034cd290023
:1057d000841f78007cee0700e487570014c0b300f4
:1057e000044f7800a1c1b30000cdb3008f0d0700b6
:1057f00000427800144798001e429000e34f520088
:10580000090032001e4290000482fb00841f7800d1
:10581000c4d02900841f78006bee0700e48757008e
:1058200014c0b300044f7800b1c1b30000cdb30081
:105830007e0d070000427800144798001e42900039
:10584000e84f5200090032001e4290000482fb0023
:10585000841f780054d42900841f78005aee070072
:10586000e487570014c0b300044f7800c1c1b300ef
:1058700000cdb3006d0d070000427800144798007a
:105880001e429000e84f5200090032001e42900074
:105890000482fb00841f780044d82900841f78000c
:1058a00049ee0700e487570014c0b300044f7800a6
:1058b000d1c1b30000cdb3005c0d070000427800f9
:1058c000144798001e429000e04f52000900320039
:1058d0001e4290000482fb00841f780034dc290003
:1058e000841f780038ee0700e487570014c0b30027
:1058f000044f7800e1c1b30000cdb3004b0d0700a9
:1059000000427800144798001e429000e04f520079
:10591000090032001e4290000482fb00841f7800c0
:10592000c4df2900841f780027ee0700e4875700b2
:1059300014c0b300044f7800f1c1b30000cdb30030
:105940003a0d070000427800144798001e4290006c
:10595000e04f5200090032001e4290000482fb001a
:10596000841f780054e32900841f780016ee070096
:10597000e487570014c0b300044f780001c2b3009d
:1059800000cdb300290d07000042780014479800ad
:105990001e429000e04f5200090032001e4290006b
:1059a0000482fb00841f7800e4e62900841f78004d
:1059b00005ee0700e487570014c0b300044f7800d9
:1059c00011c2b30000cdb300180d070000427800eb
:1059d000144798001e429000e04f52000900320028
:1059e0001e4290000482fb00841f780074ea2900a4
:1059f000841f7800f4ed0700e487570014c0b3005b
:105a0000044f780021c2b30000cdb300070d07009a
:105a100000427800144798001e429000e04f520068
:105a2000090032001e4290000482fb00841f7800af
